{
  "_format": "hh3-artifact-1",
  "contractName": "Marketplace",
  "sourceName": "contracts/MarketPlace.sol",
  "abi": [
    {
      "inputs": [
        {
          "internalType": "address",
          "name": "target",
          "type": "address"
        }
      ],
      "name": "AddressEmptyCode",
      "type": "error"
    },
    {
      "inputs": [
        {
          "internalType": "address",
          "name": "implementation",
          "type": "address"
        }
      ],
      "name": "ERC1967InvalidImplementation",
      "type": "error"
    },
    {
      "inputs": [],
      "name": "ERC1967NonPayable",
      "type": "error"
    },
    {
      "inputs": [],
      "name": "FailedCall",
      "type": "error"
    },
    {
      "inputs": [],
      "name": "InvalidInitialization",
      "type": "error"
    },
    {
      "inputs": [],
      "name": "NotInitializing",
      "type": "error"
    },
    {
      "inputs": [
        {
          "internalType": "address",
          "name": "owner",
          "type": "address"
        }
      ],
      "name": "OwnableInvalidOwner",
      "type": "error"
    },
    {
      "inputs": [
        {
          "internalType": "address",
          "name": "account",
          "type": "address"
        }
      ],
      "name": "OwnableUnauthorizedAccount",
      "type": "error"
    },
    {
      "inputs": [],
      "name": "ReentrancyGuardReentrantCall",
      "type": "error"
    },
    {
      "inputs": [],
      "name": "UUPSUnauthorizedCallContext",
      "type": "error"
    },
    {
      "inputs": [
        {
          "internalType": "bytes32",
          "name": "slot",
          "type": "bytes32"
        }
      ],
      "name": "UUPSUnsupportedProxiableUUID",
      "type": "error"
    },
    {
      "anonymous": false,
      "inputs": [
        {
          "indexed": false,
          "internalType": "address",
          "name": "arbitrator",
          "type": "address"
        }
      ],
      "name": "ArbitratorUpdated",
      "type": "event"
    },
    {
      "anonymous": false,
      "inputs": [
        {
          "indexed": false,
          "internalType": "uint256",
          "name": "oldFee",
          "type": "uint256"
        },
        {
          "indexed": false,
          "internalType": "uint256",
          "name": "newFee",
          "type": "uint256"
        }
      ],
      "name": "CreateProductFeeUpdated",
      "type": "event"
    },
    {
      "anonymous": false,
      "inputs": [
        {
          "indexed": true,
          "internalType": "uint256",
          "name": "txnId",
          "type": "uint256"
        }
      ],
      "name": "DisputeOpened",
      "type": "event"
    },
    {
      "anonymous": false,
      "inputs": [
        {
          "indexed": true,
          "internalType": "uint256",
          "name": "txnId",
          "type": "uint256"
        },
        {
          "indexed": false,
          "internalType": "bool",
          "name": "buyerWon",
          "type": "bool"
        }
      ],
      "name": "DisputeResolved",
      "type": "event"
    },
    {
      "anonymous": false,
      "inputs": [
        {
          "indexed": false,
          "internalType": "address",
          "name": "recipient",
          "type": "address"
        }
      ],
      "name": "FeeRecipientUpdated",
      "type": "event"
    },
    {
      "anonymous": false,
      "inputs": [
        {
          "indexed": false,
          "internalType": "uint64",
          "name": "version",
          "type": "uint64"
        }
      ],
      "name": "Initialized",
      "type": "event"
    },
    {
      "anonymous": false,
      "inputs": [
        {
          "indexed": true,
          "internalType": "address",
          "name": "previousOwner",
          "type": "address"
        },
        {
          "indexed": true,
          "internalType": "address",
          "name": "newOwner",
          "type": "address"
        }
      ],
      "name": "OwnershipTransferred",
      "type": "event"
    },
    {
      "anonymous": false,
      "inputs": [
        {
          "indexed": false,
          "internalType": "uint96",
          "name": "oldFeeBps",
          "type": "uint96"
        },
        {
          "indexed": false,
          "internalType": "uint96",
          "name": "newfeeBps",
          "type": "uint96"
        }
      ],
      "name": "PlatformFeeUpdated",
      "type": "event"
    },
    {
      "anonymous": false,
      "inputs": [
        {
          "indexed": true,
          "internalType": "uint256",
          "name": "productId",
          "type": "uint256"
        },
        {
          "indexed": true,
          "internalType": "address",
          "name": "seller",
          "type": "address"
        },
        {
          "indexed": false,
          "internalType": "string",
          "name": "uri",
          "type": "string"
        }
      ],
      "name": "ProductCreated",
      "type": "event"
    },
    {
      "anonymous": false,
      "inputs": [
        {
          "indexed": true,
          "internalType": "uint256",
          "name": "productId",
          "type": "uint256"
        },
        {
          "indexed": false,
          "internalType": "uint96",
          "name": "price",
          "type": "uint96"
        }
      ],
      "name": "ProductPriceUpdated",
      "type": "event"
    },
    {
      "anonymous": false,
      "inputs": [
        {
          "indexed": true,
          "internalType": "uint256",
          "name": "productId",
          "type": "uint256"
        },
        {
          "indexed": true,
          "internalType": "uint256",
          "name": "txnId",
          "type": "uint256"
        },
        {
          "indexed": false,
          "internalType": "string",
          "name": "uri",
          "type": "string"
        }
      ],
      "name": "ProductPurchased",
      "type": "event"
    },
    {
      "anonymous": false,
      "inputs": [
        {
          "indexed": true,
          "internalType": "uint256",
          "name": "productId",
          "type": "uint256"
        },
        {
          "indexed": false,
          "internalType": "bool",
          "name": "active",
          "type": "bool"
        }
      ],
      "name": "ProductStatusUpdated",
      "type": "event"
    },
    {
      "anonymous": false,
      "inputs": [
        {
          "indexed": true,
          "internalType": "uint256",
          "name": "productId",
          "type": "uint256"
        },
        {
          "indexed": true,
          "internalType": "address",
          "name": "reviewer",
          "type": "address"
        }
      ],
      "name": "ReviewSubmitted",
      "type": "event"
    },
    {
      "anonymous": false,
      "inputs": [
        {
          "indexed": true,
          "internalType": "uint256",
          "name": "txnId",
          "type": "uint256"
        }
      ],
      "name": "TransactionCompleted",
      "type": "event"
    },
    {
      "anonymous": false,
      "inputs": [
        {
          "indexed": true,
          "internalType": "uint256",
          "name": "txnId",
          "type": "uint256"
        }
      ],
      "name": "TransactionRefunded",
      "type": "event"
    },
    {
      "anonymous": false,
      "inputs": [
        {
          "indexed": true,
          "internalType": "address",
          "name": "implementation",
          "type": "address"
        }
      ],
      "name": "Upgraded",
      "type": "event"
    },
    {
      "inputs": [],
      "name": "UPGRADE_INTERFACE_VERSION",
      "outputs": [
        {
          "internalType": "string",
          "name": "",
          "type": "string"
        }
      ],
      "stateMutability": "view",
      "type": "function"
    },
    {
      "inputs": [],
      "name": "arbitrator",
      "outputs": [
        {
          "internalType": "address",
          "name": "",
          "type": "address"
        }
      ],
      "stateMutability": "view",
      "type": "function"
    },
    {
      "inputs": [
        {
          "internalType": "uint256",
          "name": "productId",
          "type": "uint256"
        },
        {
          "internalType": "uint8",
          "name": "quantity",
          "type": "uint8"
        },
        {
          "internalType": "string",
          "name": "uri",
          "type": "string"
        }
      ],
      "name": "buyProduct",
      "outputs": [],
      "stateMutability": "nonpayable",
      "type": "function"
    },
    {
      "inputs": [
        {
          "internalType": "uint256",
          "name": "txnId",
          "type": "uint256"
        }
      ],
      "name": "cancelTransaction",
      "outputs": [],
      "stateMutability": "nonpayable",
      "type": "function"
    },
    {
      "inputs": [
        {
          "internalType": "uint256",
          "name": "txnId",
          "type": "uint256"
        }
      ],
      "name": "confirmDelivery",
      "outputs": [],
      "stateMutability": "nonpayable",
      "type": "function"
    },
    {
      "inputs": [
        {
          "internalType": "uint96",
          "name": "price",
          "type": "uint96"
        },
        {
          "internalType": "string",
          "name": "uri",
          "type": "string"
        }
      ],
      "name": "createProduct",
      "outputs": [
        {
          "internalType": "uint256",
          "name": "",
          "type": "uint256"
        }
      ],
      "stateMutability": "nonpayable",
      "type": "function"
    },
    {
      "inputs": [],
      "name": "createProductFee",
      "outputs": [
        {
          "internalType": "uint256",
          "name": "",
          "type": "uint256"
        }
      ],
      "stateMutability": "view",
      "type": "function"
    },
    {
      "inputs": [],
      "name": "feeRecipient",
      "outputs": [
        {
          "internalType": "address",
          "name": "",
          "type": "address"
        }
      ],
      "stateMutability": "view",
      "type": "function"
    },
    {
      "inputs": [
        {
          "internalType": "uint256",
          "name": "productId",
          "type": "uint256"
        }
      ],
      "name": "getAverageRating",
      "outputs": [
        {
          "internalType": "uint256",
          "name": "",
          "type": "uint256"
        }
      ],
      "stateMutability": "view",
      "type": "function"
    },
    {
      "inputs": [
        {
          "internalType": "uint256",
          "name": "",
          "type": "uint256"
        },
        {
          "internalType": "address",
          "name": "",
          "type": "address"
        }
      ],
      "name": "hasPurchased",
      "outputs": [
        {
          "internalType": "bool",
          "name": "",
          "type": "bool"
        }
      ],
      "stateMutability": "view",
      "type": "function"
    },
    {
      "inputs": [
        {
          "internalType": "address",
          "name": "token",
          "type": "address"
        },
        {
          "internalType": "address",
          "name": "_feeRecipient",
          "type": "address"
        },
        {
          "internalType": "address",
          "name": "_arbitrator",
          "type": "address"
        }
      ],
      "name": "initialize",
      "outputs": [],
      "stateMutability": "nonpayable",
      "type": "function"
    },
    {
      "inputs": [],
      "name": "mneeToken",
      "outputs": [
        {
          "internalType": "contract IERC20",
          "name": "",
          "type": "address"
        }
      ],
      "stateMutability": "view",
      "type": "function"
    },
    {
      "inputs": [
        {
          "internalType": "uint256",
          "name": "txnId",
          "type": "uint256"
        }
      ],
      "name": "openDispute",
      "outputs": [],
      "stateMutability": "nonpayable",
      "type": "function"
    },
    {
      "inputs": [],
      "name": "owner",
      "outputs": [
        {
          "internalType": "address",
          "name": "",
          "type": "address"
        }
      ],
      "stateMutability": "view",
      "type": "function"
    },
    {
      "inputs": [],
      "name": "platformFeeBps",
      "outputs": [
        {
          "internalType": "uint96",
          "name": "",
          "type": "uint96"
        }
      ],
      "stateMutability": "view",
      "type": "function"
    },
    {
      "inputs": [],
      "name": "productCount",
      "outputs": [
        {
          "internalType": "uint256",
          "name": "",
          "type": "uint256"
        }
      ],
      "stateMutability": "view",
      "type": "function"
    },
    {
      "inputs": [
        {
          "internalType": "uint256",
          "name": "",
          "type": "uint256"
        }
      ],
      "name": "products",
      "outputs": [
        {
          "internalType": "address",
          "name": "seller",
          "type": "address"
        },
        {
          "internalType": "uint96",
          "name": "price",
          "type": "uint96"
        },
        {
          "internalType": "bool",
          "name": "active",
          "type": "bool"
        },
        {
          "internalType": "string",
          "name": "metadataURI",
          "type": "string"
        }
      ],
      "stateMutability": "view",
      "type": "function"
    },
    {
      "inputs": [],
      "name": "proxiableUUID",
      "outputs": [
        {
          "internalType": "bytes32",
          "name": "",
          "type": "bytes32"
        }
      ],
      "stateMutability": "view",
      "type": "function"
    },
    {
      "inputs": [
        {
          "internalType": "uint256",
          "name": "",
          "type": "uint256"
        }
      ],
      "name": "ratingCount",
      "outputs": [
        {
          "internalType": "uint256",
          "name": "",
          "type": "uint256"
        }
      ],
      "stateMutability": "view",
      "type": "function"
    },
    {
      "inputs": [],
      "name": "renounceOwnership",
      "outputs": [],
      "stateMutability": "nonpayable",
      "type": "function"
    },
    {
      "inputs": [
        {
          "internalType": "uint256",
          "name": "txnId",
          "type": "uint256"
        },
        {
          "internalType": "bool",
          "name": "buyerWins",
          "type": "bool"
        }
      ],
      "name": "resolveDispute",
      "outputs": [],
      "stateMutability": "nonpayable",
      "type": "function"
    },
    {
      "inputs": [
        {
          "internalType": "uint256",
          "name": "",
          "type": "uint256"
        },
        {
          "internalType": "address",
          "name": "",
          "type": "address"
        }
      ],
      "name": "reviews",
      "outputs": [
        {
          "internalType": "uint8",
          "name": "rating",
          "type": "uint8"
        },
        {
          "internalType": "string",
          "name": "comment",
          "type": "string"
        }
      ],
      "stateMutability": "view",
      "type": "function"
    },
    {
      "inputs": [
        {
          "internalType": "address",
          "name": "_arbitrator",
          "type": "address"
        }
      ],
      "name": "setArbitrator",
      "outputs": [],
      "stateMutability": "nonpayable",
      "type": "function"
    },
    {
      "inputs": [
        {
          "internalType": "uint256",
          "name": "newFee",
          "type": "uint256"
        }
      ],
      "name": "setCreateProductFee",
      "outputs": [],
      "stateMutability": "nonpayable",
      "type": "function"
    },
    {
      "inputs": [
        {
          "internalType": "address",
          "name": "recipient",
          "type": "address"
        }
      ],
      "name": "setFeeRecipient",
      "outputs": [],
      "stateMutability": "nonpayable",
      "type": "function"
    },
    {
      "inputs": [
        {
          "internalType": "uint96",
          "name": "newfeeBps",
          "type": "uint96"
        }
      ],
      "name": "setPlatformFee",
      "outputs": [],
      "stateMutability": "nonpayable",
      "type": "function"
    },
    {
      "inputs": [
        {
          "internalType": "uint256",
          "name": "productId",
          "type": "uint256"
        },
        {
          "internalType": "uint96",
          "name": "price",
          "type": "uint96"
        }
      ],
      "name": "setProductPrice",
      "outputs": [],
      "stateMutability": "nonpayable",
      "type": "function"
    },
    {
      "inputs": [
        {
          "internalType": "uint256",
          "name": "productId",
          "type": "uint256"
        },
        {
          "internalType": "bool",
          "name": "active",
          "type": "bool"
        }
      ],
      "name": "setProductStatus",
      "outputs": [],
      "stateMutability": "nonpayable",
      "type": "function"
    },
    {
      "inputs": [
        {
          "internalType": "uint256",
          "name": "productId",
          "type": "uint256"
        },
        {
          "internalType": "uint8",
          "name": "rating",
          "type": "uint8"
        },
        {
          "internalType": "string",
          "name": "comment",
          "type": "string"
        }
      ],
      "name": "submitReview",
      "outputs": [],
      "stateMutability": "nonpayable",
      "type": "function"
    },
    {
      "inputs": [
        {
          "internalType": "uint256",
          "name": "",
          "type": "uint256"
        }
      ],
      "name": "totalRatings",
      "outputs": [
        {
          "internalType": "uint256",
          "name": "",
          "type": "uint256"
        }
      ],
      "stateMutability": "view",
      "type": "function"
    },
    {
      "inputs": [],
      "name": "transactionCount",
      "outputs": [
        {
          "internalType": "uint256",
          "name": "",
          "type": "uint256"
        }
      ],
      "stateMutability": "view",
      "type": "function"
    },
    {
      "inputs": [
        {
          "internalType": "uint256",
          "name": "",
          "type": "uint256"
        }
      ],
      "name": "transactions",
      "outputs": [
        {
          "internalType": "address",
          "name": "buyer",
          "type": "address"
        },
        {
          "internalType": "address",
          "name": "seller",
          "type": "address"
        },
        {
          "internalType": "uint256",
          "name": "productId",
          "type": "uint256"
        },
        {
          "internalType": "uint8",
          "name": "quantity",
          "type": "uint8"
        },
        {
          "internalType": "uint96",
          "name": "amount",
          "type": "uint96"
        },
        {
          "internalType": "string",
          "name": "metadataURI",
          "type": "string"
        },
        {
          "internalType": "enum Marketplace.TxStatus",
          "name": "status",
          "type": "uint8"
        }
      ],
      "stateMutability": "view",
      "type": "function"
    },
    {
      "inputs": [
        {
          "internalType": "address",
          "name": "newOwner",
          "type": "address"
        }
      ],
      "name": "transferOwnership",
      "outputs": [],
      "stateMutability": "nonpayable",
      "type": "function"
    },
    {
      "inputs": [
        {
          "internalType": "address",
          "name": "newImplementation",
          "type": "address"
        },
        {
          "internalType": "bytes",
          "name": "data",
          "type": "bytes"
        }
      ],
      "name": "upgradeToAndCall",
      "outputs": [],
      "stateMutability": "payable",
      "type": "function"
    }
  ],
  "bytecode": "0x60a0604052306080523480156012575f5ffd5b50608051612b196100395f395f8181611f4501528181611f6e01526120b20152612b195ff3fe6080604052600436106101f1575f3560e01c806394b168f411610108578063c0c53b8b1161009d578063e0f6ef871161006d578063e0f6ef8714610613578063e74b981b14610628578063f2fde38b14610647578063f99e5dbb14610666578063fd84cb9714610685575f5ffd5b8063c0c53b8b1461055f578063c12804fb1461057e578063d69a6ef4146105ab578063dc9da2f8146105ca575f5ffd5b8063ad3cb1cc116100d8578063ad3cb1cc146104cf578063b0eefabe1461050c578063b77bf6001461052b578063ba3f083714610540575f5ffd5b806394b168f4146104405780639ab681c51461045f5780639ace38c21461047e5780639fc161b3146104b0575f5ffd5b80634f1ef28611610189578063715018a611610159578063715018a61461039f57806374747837146103b357806374a5b693146103de5780637acc0b20146103fd5780638da5cb5b1461042c575f5ffd5b80634f1ef2861461033b57806352d1902d1461034e5780635b71474a146103625780636cc6cde114610380575f5ffd5b806327d00fb0116101c457806327d00fb0146102a55780633380c0d8146102c657806334b25ee2146102e55780634690484014610304575f5ffd5b806304245d3e146101f55780630c9757651461021d57806317b7e03e1461024857806322dcd13e14610267575b5f5ffd5b348015610200575f5ffd5b5061020a60035481565b6040519081526020015b60405180910390f35b348015610228575f5ffd5b5061020a610237366004612400565b600b6020525f908152604090205481565b348015610253575f5ffd5b5061020a610262366004612400565b6106a4565b348015610272575f5ffd5b5060025461028d90600160a01b90046001600160601b031681565b6040516001600160601b039091168152602001610214565b3480156102b0575f5ffd5b506102c46102bf366004612400565b6106ed565b005b3480156102d1575f5ffd5b506102c46102e0366004612400565b6107bf565b3480156102f0575f5ffd5b506102c46102ff366004612424565b61093e565b34801561030f575f5ffd5b50600154610323906001600160a01b031681565b6040516001600160a01b039091168152602001610214565b6102c4610349366004612481565b610b20565b348015610359575f5ffd5b5061020a610b3b565b34801561036d575f5ffd5b505f54610323906001600160a01b031681565b34801561038b575f5ffd5b50600254610323906001600160a01b031681565b3480156103aa575f5ffd5b506102c4610b56565b3480156103be575f5ffd5b5061020a6103cd366004612400565b600a6020525f908152604090205481565b3480156103e9575f5ffd5b506102c46103f836600461258a565b610b69565b348015610408575f5ffd5b5061041c610417366004612400565b610d12565b6040516102149493929190612615565b348015610437575f5ffd5b50610323610ddb565b34801561044b575f5ffd5b506102c461045a36600461258a565b610e09565b34801561046a575f5ffd5b5061020a61047936600461266f565b611234565b348015610489575f5ffd5b5061049d610498366004612400565b611494565b60405161021497969594939291906126d2565b3480156104bb575f5ffd5b506102c46104ca36600461274c565b611575565b3480156104da575f5ffd5b506104ff604051806040016040528060058152602001640352e302e360dc1b81525081565b6040516102149190612776565b348015610517575f5ffd5b506102c4610526366004612788565b61167e565b348015610536575f5ffd5b5061020a60055481565b34801561054b575f5ffd5b506102c461055a366004612400565b6116ed565b34801561056a575f5ffd5b506102c46105793660046127a1565b611802565b348015610589575f5ffd5b5061059d6105983660046127e1565b6119c4565b604051610214929190612802565b3480156105b6575f5ffd5b506102c46105c5366004612424565b611a75565b3480156105d5575f5ffd5b506106036105e43660046127e1565b600860209081525f928352604080842090915290825290205460ff1681565b6040519015158152602001610214565b34801561061e575f5ffd5b5061020a60045481565b348015610633575f5ffd5b506102c4610642366004612788565b611b0d565b348015610652575f5ffd5b506102c4610661366004612788565b611b75565b348015610671575f5ffd5b506102c4610680366004612825565b611baf565b348015610690575f5ffd5b506102c461069f366004612400565b611c8c565b5f818152600b60205260408120548082036106c157505f92915050565b5f838152600a602052604090205481906106dc906064612852565b6106e69190612869565b9392505050565b5f81815260076020526040812090600582015460ff166003811115610714576107146126be565b148015610740575080546001600160a01b0316331480610740575060018101546001600160a01b031633145b6107825760405162461bcd60e51b815260206004820152600e60248201526d43616e6e6f74206469737075746560901b60448201526064015b60405180910390fd5b60058101805460ff1916600117905560405182907fed50123fe46d12537dcaae53f33aee1c64bcc9e4f222560f3bae6c0824040dd3905f90a25050565b6107c7611d4e565b5f81815260076020526040812090600582015460ff1660038111156107ee576107ee6126be565b148015610829575060018101546001600160a01b03163314806108295750610814610ddb565b6001600160a01b0316336001600160a01b0316145b6108645760405162461bcd60e51b815260206004820152600c60248201526b155b985d5d1a1bdc9a5e995960a21b6044820152606401610779565b5f548154600383015460405163a9059cbb60e01b81526001600160a01b0392831660048201526101009091046001600160601b0316602482015291169063a9059cbb906044016020604051808303815f875af11580156108c6573d5f5f3e3d5ffd5b505050506040513d601f19601f820116820180604052508101906108ea9190612888565b5060058101805460ff1916600317905560405182907f4c5f7b4b152ec03bf5cc9c2af634e2efd9b7a01044e6ce4acef7e3c955697a4d905f90a25061093b60015f516020612ac45f395f51905f5255565b50565b610946611d4e565b6002546001600160a01b031633146109915760405162461bcd60e51b815260206004820152600e60248201526d2737ba1030b93134ba3930ba37b960911b6044820152606401610779565b5f8281526007602052604090206001600582015460ff1660038111156109b9576109b96126be565b146109f55760405162461bcd60e51b815260206004820152600c60248201526b139bdd08191a5cdc1d5d195960a21b6044820152606401610779565b8115610ac0575f548154600383015460405163a9059cbb60e01b81526001600160a01b0392831660048201526101009091046001600160601b0316602482015291169063a9059cbb906044016020604051808303815f875af1158015610a5d573d5f5f3e3d5ffd5b505050506040513d601f19601f82011682018060405250810190610a819190612888565b5060058101805460ff1916600317905560405183907f4c5f7b4b152ec03bf5cc9c2af634e2efd9b7a01044e6ce4acef7e3c955697a4d905f90a2610ac9565b610ac983611d98565b827f5a87909bff68caaaaf0b3fd9c74eeccc928832f879315e5c6fb7a73612f26c0c83604051610afd911515815260200190565b60405180910390a250610b1c60015f516020612ac45f395f51905f5255565b5050565b610b28611f3a565b610b3182611fde565b610b1c8282611fe6565b5f610b446120a7565b505f516020612aa45f395f51905f5290565b610b5e6120f0565b610b675f612122565b565b5f84815260086020908152604080832033845290915290205460ff168015610b9357505f8360ff16115b8015610ba3575060058360ff1611155b8015610bc857505f84815260096020908152604080832033845290915290205460ff16155b8015610bd5575060c88111155b610c125760405162461bcd60e51b815260206004820152600e60248201526d496e76616c69642072657669657760901b6044820152606401610779565b60405180604001604052808460ff16815260200183838080601f0160208091040260200160405190810160405280939291908181526020018383808284375f92018290525093909452505086815260096020908152604080832033845282529091208351815460ff191660ff909116178155908301519091506001820190610c9a9082612926565b5050505f848152600a60205260408120805460ff86169290610cbd9084906129e1565b90915550505f848152600b60205260408120805491610cdb836129f4565b9091555050604051339085907f049c6bc670988ed0fe782ccafb4e8cf96eb4fed5e99f7ba5b64d9bb782107077905f90a350505050565b60066020525f90815260409020805460018201546002830180546001600160a01b03841694600160a01b9094046001600160601b03169360ff909316929190610d5a906128a3565b80601f0160208091040260200160405190810160405280929190818152602001828054610d86906128a3565b8015610dd15780601f10610da857610100808354040283529160200191610dd1565b820191905f5260205f20905b815481529060010190602001808311610db457829003601f168201915b5050505050905084565b7f9016d09d72d40fdae2fd8ceac6b6234c7706214fd39c1cd1e609a0528c199300546001600160a01b031690565b610e11611d4e565b5f84118015610e2257506004548411155b610e635760405162461bcd60e51b8152602060048201526012602482015271125b9d985b1a59081c1c9bd91d58dd08125160721b6044820152606401610779565b5f848152600660205260409020600181015460ff16610eb75760405162461bcd60e51b815260206004820152601060248201526f50726f6475637420696e61637469766560801b6044820152606401610779565b8054336001600160a01b0390911603610f065760405162461bcd60e51b815260206004820152601160248201527053656c6c65722063616e6e6f742062757960781b6044820152606401610779565b5f8460ff1611610f4b5760405162461bcd60e51b815260206004820152601060248201526f496e76616c6964207175616e7469747960801b6044820152606401610779565b81610f865760405162461bcd60e51b815260206004820152600b60248201526a496e76616c69642055524960a81b6044820152606401610779565b80545f90610fa89060ff871690600160a01b90046001600160601b0316612a0c565b5f546040516323b872dd60e01b81523360048201523060248201526001600160601b03831660448201529192506001600160a01b0316906323b872dd906064016020604051808303815f875af1158015611004573d5f5f3e3d5ffd5b505050506040513d601f19601f820116820180604052508101906110289190612888565b6110655760405162461bcd60e51b815260206004820152600e60248201526d14185e5b595b9d0819985a5b195960921b6044820152606401610779565b6005805460010190556040805160e08101825233815283546001600160a01b031660208083019190915281830189905260ff881660608301526001600160601b03841660808301528251601f8701829004820281018201909352858352909160a083019187908790819084018382808284375f9201829052509385525050506020918201819052600554815260078252604090819020835181546001600160a01b03199081166001600160a01b039283161783559385015160018301805490951691161790925582015160028201556060820151600382018054608085015160ff9093166cffffffffffffffffffffffffff19909116176101006001600160601b039093169290920291909117905560a082015160048201906111889082612926565b5060c082015160058201805460ff191660018360038111156111ac576111ac6126be565b021790555050505f86815260086020908152604080832033845290915290819020805460ff19166001179055600554905187907f883564ce9367ba5f0fa7c1233227550e472d6240fe9316117d9c5519a6f9f5a69061120e9088908890612a35565b60405180910390a3505061122e60015f516020612ac45f395f51905f5255565b50505050565b5f5f846001600160601b031611801561124c57508115155b6112ae5760405162461bcd60e51b815260206004820152602d60248201527f507269636520616e6420555249206279746573206d757374206265206772656160448201526c746572207468616e207a65726f60981b6064820152608401610779565b5f546003546040516323b872dd60e01b815233600482015230602482015260448101919091526001600160a01b03909116906323b872dd906064016020604051808303815f875af1158015611305573d5f5f3e3d5ffd5b505050506040513d601f19601f820116820180604052508101906113299190612888565b6113755760405162461bcd60e51b815260206004820152601860248201527f4d4e454520666565207472616e73666572206661696c656400000000000000006044820152606401610779565b600480546001908101909155604080516080810182523381526001600160601b038716602080830191909152818301939093528151601f86018490048402810184019092528482529160608301919086908690819084018382808284375f9201829052509390945250506004548152600660209081526040918290208451918501516001600160601b0316600160a01b026001600160a01b039092169190911781559083015160018201805491151560ff19909216919091179055606083015190915060028201906114479082612926565b50506004546040513392507f91bfc064380de20e1c90ea2ed78d0358b4ab45d446c0b93b0b07bc86f95897da906114819087908790612a35565b60405180910390a3506004549392505050565b60076020525f9081526040902080546001820154600283015460038401546004850180546001600160a01b03958616969590941694929360ff8316936101009093046001600160601b03169291906114eb906128a3565b80601f0160208091040260200160405190810160405280929190818152602001828054611517906128a3565b80156115625780601f1061153957610100808354040283529160200191611562565b820191905f5260205f20905b81548152906001019060200180831161154557829003601f168201915b5050506005909301549192505060ff1687565b5f82815260066020526040902080546001600160a01b031633146115c85760405162461bcd60e51b815260206004820152600a6024820152692737ba1039b2b63632b960b11b6044820152606401610779565b5f826001600160601b0316116116205760405162461bcd60e51b815260206004820152601f60248201527f5072696365206d7573742062652067726561746572207468616e207a65726f006044820152606401610779565b80546001600160a01b0316600160a01b6001600160601b03841690810291909117825560405190815283907fb3f61cefe4dd46101ea0b77b2e3d6c1227122976e9592fac74c3d97bffa1262e906020015b60405180910390a2505050565b6116866120f0565b6001600160a01b038116611698575f5ffd5b600280546001600160a01b0319166001600160a01b0383169081179091556040519081527f961c543f04f95b46a6d6af9e463eb4f186ceea8ca52f869ec568c0197080401b906020015b60405180910390a150565b6116f56120f0565b662386f26fc1000081101561173a5760405162461bcd60e51b815260206004820152600b60248201526a46656520746f6f206c6f7760a81b6044820152606401610779565b683635c9adc5dea000008111156117825760405162461bcd60e51b815260206004820152600c60248201526b08ccaca40e8dede40d0d2ced60a31b6044820152606401610779565b6003548082036117bf5760405162461bcd60e51b815260206004820152600860248201526753616d652066656560c01b6044820152606401610779565b600382905560408051828152602081018490527f74851ebb9d37e37022a73a913c0ccf2910bd63426bf32df12c535e5de60f5a5291015b60405180910390a15050565b5f61180b612192565b805490915060ff600160401b820416159067ffffffffffffffff165f811580156118325750825b90505f8267ffffffffffffffff16600114801561184e5750303b155b90508115801561185c575080155b1561187a5760405163f92ee8a960e01b815260040160405180910390fd5b845467ffffffffffffffff1916600117855583156118a457845460ff60401b1916600160401b1785555b6001600160a01b038816158015906118c457506001600160a01b03871615155b80156118d857506001600160a01b03861615155b6119165760405162461bcd60e51b815260206004820152600f60248201526e496e76616c6964206164647265737360881b6044820152606401610779565b61191f336121bc565b6119276121cd565b61192f6121dd565b5f80546001600160a01b03808b166001600160a01b031992831617909255600180548a84169216919091179055604b60a21b90871617600255678ac7230489e8000060035583156119ba57845460ff60401b19168555604051600181527fc7f505b2f371ae2175ee4913f4499e1f2633a7b5936321eed1cdaeb6115181d29060200160405180910390a15b5050505050505050565b600960209081525f92835260408084209091529082529020805460018201805460ff90921692916119f4906128a3565b80601f0160208091040260200160405190810160405280929190818152602001828054611a20906128a3565b8015611a6b5780601f10611a4257610100808354040283529160200191611a6b565b820191905f5260205f20905b815481529060010190602001808311611a4e57829003601f168201915b5050505050905082565b5f82815260066020526040902080546001600160a01b03163314611ac85760405162461bcd60e51b815260206004820152600a6024820152692737ba1039b2b63632b960b11b6044820152606401610779565b60018101805460ff191683151590811790915560405190815283907f096fb264925a6e0e077f5e481cffac4e5c3aafb46b5209638a24360307f4766990602001611671565b611b156120f0565b6001600160a01b038116611b27575f5ffd5b600180546001600160a01b0319166001600160a01b0383169081179091556040519081527f7a7b5a0a132f9e0581eb8527f66eae9ee89c2a3e79d4ac7e41a1f1f4d48a7fc2906020016116e2565b611b7d6120f0565b6001600160a01b038116611ba657604051631e4fbdf760e01b81525f6004820152602401610779565b61093b81612122565b611bb76120f0565b60c8816001600160601b031610158015611bdc57506101f4816001600160601b031611155b611c285760405162461bcd60e51b815260206004820152601d60248201527f466565206d757374206265206265747765656e20322520616e642035250000006044820152606401610779565b600280546001600160601b03838116600160a01b8181026001600160a01b0385161790945560408051949093049091168084526020840191909152917ffeeddf72b7ee4210b769104cb8b071e5706232ac7f671fb292af429ffd58b58791016117f6565b611c94611d4e565b5f81815260076020526040812090600582015460ff166003811115611cbb57611cbb6126be565b148015611cf3575080546001600160a01b0316331480611cf35750611cde610ddb565b6001600160a01b0316336001600160a01b0316145b611d2e5760405162461bcd60e51b815260206004820152600c60248201526b155b985d5d1a1bdc9a5e995960a21b6044820152606401610779565b611d3782611d98565b5061093b60015f516020612ac45f395f51905f5255565b5f516020612ac45f395f51905f52805460011901611d7f57604051633ee5aeb560e01b815260040160405180910390fd5b60029055565b60015f516020612ac45f395f51905f5255565b5f818152600760205260408120600254600382015491929161271091611dd7916001600160601b03600160a01b90920482169161010090910416612852565b611de19190612869565b60038301549091505f90611e0490839061010090046001600160601b0316612a63565b90508115611e83575f5460015460405163a9059cbb60e01b81526001600160a01b0391821660048201526024810185905291169063a9059cbb906044016020604051808303815f875af1158015611e5d573d5f5f3e3d5ffd5b505050506040513d601f19601f82011682018060405250810190611e819190612888565b505b5f54600184015460405163a9059cbb60e01b81526001600160a01b0391821660048201526024810184905291169063a9059cbb906044016020604051808303815f875af1158015611ed6573d5f5f3e3d5ffd5b505050506040513d601f19601f82011682018060405250810190611efa9190612888565b5060058301805460ff1916600217905560405184907f161186077e0cdfa49fae16d54ce01ea091439dbf14243419593fa6c051c906c8905f90a250505050565b306001600160a01b037f0000000000000000000000000000000000000000000000000000000000000000161480611fc057507f00000000000000000000000000000000000000000000000000000000000000006001600160a01b0316611fb45f516020612aa45f395f51905f52546001600160a01b031690565b6001600160a01b031614155b15610b675760405163703e46dd60e11b815260040160405180910390fd5b61093b6120f0565b816001600160a01b03166352d1902d6040518163ffffffff1660e01b8152600401602060405180830381865afa925050508015612040575060408051601f3d908101601f1916820190925261203d91810190612a76565b60015b61206857604051634c9c8ce360e01b81526001600160a01b0383166004820152602401610779565b5f516020612aa45f395f51905f52811461209857604051632a87526960e21b815260048101829052602401610779565b6120a283836121e5565b505050565b306001600160a01b037f00000000000000000000000000000000000000000000000000000000000000001614610b675760405163703e46dd60e11b815260040160405180910390fd5b336120f9610ddb565b6001600160a01b031614610b675760405163118cdaa760e01b8152336004820152602401610779565b7f9016d09d72d40fdae2fd8ceac6b6234c7706214fd39c1cd1e609a0528c19930080546001600160a01b031981166001600160a01b03848116918217845560405192169182907f8be0079c531659141344cd1fd0a4f28419497f9722a3daafe3b4186f6b6457e0905f90a3505050565b5f807ff0c57e16840df040f15088dc2f81fe391c3923bec73e23a9662efc9c229c6a005b92915050565b6121c461223a565b61093b8161225f565b6121d561223a565b610b67612267565b610b6761223a565b6121ee8261226f565b6040516001600160a01b038316907fbc7cd75a20ee27fd9adebab32041f755214dbc6bffa90cc0225b39da2e5c2d3b905f90a2805115612232576120a282826122d2565b610b1c612344565b612242612363565b610b6757604051631afcd79f60e31b815260040160405180910390fd5b611b7d61223a565b611d8561223a565b806001600160a01b03163b5f036122a457604051634c9c8ce360e01b81526001600160a01b0382166004820152602401610779565b5f516020612aa45f395f51905f5280546001600160a01b0319166001600160a01b0392909216919091179055565b60605f5f846001600160a01b0316846040516122ee9190612a8d565b5f60405180830381855af49150503d805f8114612326576040519150601f19603f3d011682016040523d82523d5f602084013e61232b565b606091505b509150915061233b85838361237c565b95945050505050565b3415610b675760405163b398979f60e01b815260040160405180910390fd5b5f61236c612192565b54600160401b900460ff16919050565b6060826123915761238c826123d8565b6106e6565b81511580156123a857506001600160a01b0384163b155b156123d157604051639996b31560e01b81526001600160a01b0385166004820152602401610779565b50806106e6565b8051156123e757805160208201fd5b60405163d6bda27560e01b815260040160405180910390fd5b5f60208284031215612410575f5ffd5b5035919050565b801515811461093b575f5ffd5b5f5f60408385031215612435575f5ffd5b82359150602083013561244781612417565b809150509250929050565b80356001600160a01b0381168114612468575f5ffd5b919050565b634e487b7160e01b5f52604160045260245ffd5b5f5f60408385031215612492575f5ffd5b61249b83612452565b9150602083013567ffffffffffffffff8111156124b6575f5ffd5b8301601f810185136124c6575f5ffd5b803567ffffffffffffffff8111156124e0576124e061246d565b604051601f8201601f19908116603f0116810167ffffffffffffffff8111828210171561250f5761250f61246d565b604052818152828201602001871015612526575f5ffd5b816020840160208301375f602083830101528093505050509250929050565b5f5f83601f840112612555575f5ffd5b50813567ffffffffffffffff81111561256c575f5ffd5b602083019150836020828501011115612583575f5ffd5b9250929050565b5f5f5f5f6060858703121561259d575f5ffd5b84359350602085013560ff811681146125b4575f5ffd5b9250604085013567ffffffffffffffff8111156125cf575f5ffd5b6125db87828801612545565b95989497509550505050565b5f81518084528060208401602086015e5f602082860101526020601f19601f83011685010191505092915050565b6001600160a01b03851681526001600160601b038416602082015282151560408201526080606082018190525f9061264f908301846125e7565b9695505050505050565b80356001600160601b0381168114612468575f5ffd5b5f5f5f60408486031215612681575f5ffd5b61268a84612659565b9250602084013567ffffffffffffffff8111156126a5575f5ffd5b6126b186828701612545565b9497909650939450505050565b634e487b7160e01b5f52602160045260245ffd5b6001600160a01b038881168252871660208201526040810186905260ff851660608201526001600160601b038416608082015260e060a082018190525f9061271c908301856125e7565b90506004831061273a57634e487b7160e01b5f52602160045260245ffd5b8260c083015298975050505050505050565b5f5f6040838503121561275d575f5ffd5b8235915061276d60208401612659565b90509250929050565b602081525f6106e660208301846125e7565b5f60208284031215612798575f5ffd5b6106e682612452565b5f5f5f606084860312156127b3575f5ffd5b6127bc84612452565b92506127ca60208501612452565b91506127d860408501612452565b90509250925092565b5f5f604083850312156127f2575f5ffd5b8235915061276d60208401612452565b60ff83168152604060208201525f61281d60408301846125e7565b949350505050565b5f60208284031215612835575f5ffd5b6106e682612659565b634e487b7160e01b5f52601160045260245ffd5b80820281158282048414176121b6576121b661283e565b5f8261288357634e487b7160e01b5f52601260045260245ffd5b500490565b5f60208284031215612898575f5ffd5b81516106e681612417565b600181811c908216806128b757607f821691505b6020821081036128d557634e487b7160e01b5f52602260045260245ffd5b50919050565b601f8211156120a257805f5260205f20601f840160051c810160208510156129005750805b601f840160051c820191505b8181101561291f575f815560010161290c565b5050505050565b815167ffffffffffffffff8111156129405761294061246d565b6129548161294e84546128a3565b846128db565b6020601f821160018114612986575f831561296f5750848201515b5f19600385901b1c1916600184901b17845561291f565b5f84815260208120601f198516915b828110156129b55787850151825560209485019460019092019101612995565b50848210156129d257868401515f19600387901b60f8161c191681555b50505050600190811b01905550565b808201808211156121b6576121b661283e565b5f60018201612a0557612a0561283e565b5060010190565b6001600160601b038181168382160290811690818114612a2e57612a2e61283e565b5092915050565b60208152816020820152818360408301375f818301604090810191909152601f909201601f19160101919050565b818103818111156121b6576121b661283e565b5f60208284031215612a86575f5ffd5b5051919050565b5f82518060208501845e5f92019182525091905056fe360894a13ba1a3210667c828492db98dca3e2076cc3735a920a3ca505d382bbc9b779b17422d0df92223018b32b4d1fa46e071723d6817e2486d003becc55f00a264697066735822122010553758b940f15fa753aab358e3c367c28511d65ac245c153fcf62d54aa4a4364736f6c634300081c0033",
  "linkReferences": {},
  "deployedLinkReferences": {},
  "immutableReferences": {
    "482": [
      {
        "length": 32,
        "start": 8005
      },
      {
        "length": 32,
        "start": 8046
      },
      {
        "length": 32,
        "start": 8370
      }
    ]
  },
  "inputSourceName": "project/contracts/MarketPlace.sol",
  "buildInfoId": "solc-0_8_28-eb4d8669146a541c144d3f1db1593cb5f4f4dc4a"
}